:020000040000fa
:080000000002040000000000f2
:020000040000fa
:100008009a0200009a0200009a0200009a02000078
:100018009a0200009a0200009a0200009a02000068
:100028009a0200009a0200009a0200009a02000058
:100038009a0200009a0200009a0200009a02000048
:100048009a0200009a0200009a0200009a02000038
:100058009a0200009a0200009a0200009a02000028
:100068009a0200009a0200009a020000b4070000f9
:100078009a0200009a0200009a0200009a02000008
:100088009a0200009a0200009a0200009a020000f8
:100098009a0200009a0200009a0200009a020000e8
:1000a8009a0200009a0200009a0200009a020000d8
:1000b8009a0200009a0200009a0200009a020000c8
:1000c8009a0200009a0200009a0200009a020000b8
:1000d8009a0200009a0200009a0200009a020000a8
:1000e8009a0200009a0200009a0200009a02000098
:1000f8009a0200009a0200009a0200009a02000088
:100108009a0200009a0200009a0200009a02000077
:100118009a0200009a0200009a0200009a02000067
:100128009a0200009a0200009a0200009a02000057
:100138009a0200009a0200009a0200009a02000047
:100148009a0200009a0200009a0200009a02000037
:100158009a0200009a0200009a0200009a02000027
:100168009a0200009a0200009a0200009a02000017
:100178009a0200009a0200009a0200009a02000007
:100188009a0200009a0200009a0200009a020000f7
:100198009a0200009a0200009a0200009a020000e7
:1001a8009a0200009a0200009a0200009a020000d7
:1001b8009a0200009a0200009a0200009a020000c7
:1001c8009a0200009a0200009a0200009a020000b7
:1001d8009a0200009a0200009a0200009a020000a7
:1001e8009a0200009a0200009a0200009a02000097
:0801f8009a0200009a020000c7
:020000040000fa
:100208009a0200009a0200009a0200009a02000076
:100218009a0200009a0200009a0200009a02000066
:100228009a0200009a0200009a0200009a02000056
:100238009a0200009a0200009a0200009a02000046
:100248009a0200009a0200009a0200009a02000036
:100258009a0200009a0200009a0200009a02000026
:100268009a0200009a0200009a020000b4070000f7
:100278009a0200009a0200009a0200009a02000006
:100288009a0200009a0200009a0200009a020000f6
:100298009a0200009a0200009a0200009a020000e6
:1002a8009a0200009a0200009a0200009a020000d6
:1002b8009a0200009a0200009a0200009a020000c6
:1002c8009a0200009a0200009a0200009a020000b6
:1002d8009a0200009a0200009a0200009a020000a6
:1002e8009a0200009a0200009a0200009a02000096
:1002f8009a0200009a0200009a0200009a02000086
:100308009a0200009a0200009a0200009a02000075
:100318009a0200009a0200009a0200009a02000065
:100328009a0200009a0200009a0200009a02000055
:100338009a0200009a0200009a0200009a02000045
:100348009a0200009a0200009a0200009a02000035
:100358009a0200009a0200009a0200009a02000025
:100368009a0200009a0200009a0200009a02000015
:100378009a0200009a0200009a0200009a02000005
:100388009a0200009a0200009a0200009a020000f5
:100398009a0200009a0200009a0200009a020000e5
:1003a8009a0200009a0200009a0200009a020000d5
:1003b8009a0200009a0200009a0200009a020000c5
:1003c8009a0200009a0200009a0200009a020000b5
:1003d8009a0200009a0200009a0200009a020000a5
:1003e8009a0200009a0200009a0200009a02000095
:0803f8009a0200009a020000c5
:020000040000fa
:100400002f8020000e7f22000e01880000000000d7
:10041000000020000000e000020032000001200087
:10042000200288000c000700208720000100200027
:1004300011000700000020000000e0000200320070
:100440000000020000000000080702000000000099
:100450000040da000000fe004440a9000001200036
:100460000000e0000300320000002000a00188002e
:100470004440a80000000600910188008000780038
:100480000000eb0015003700e280400032a0b4000d
:100490009101ba00e280400032a0b4009102ba009b
:1004a000e280400032a0b4000002eb00472bde00e7
:1004b000f507b200602ce10004003a000059eb009f
:1004c0008301e900fdff3e00040037006128e100e0
:1004d000010032000082eb00040007001101ba00a5
:1004e0000200e000e8ff3a00000006003159ba00bf
:1004f0008301e9000c0032002159ba008301e900b0
:10050000080032000400e00003003a00e2804000ee
:1005100032a0b400f5ff370011d9ba008301e90019
:10052000faff3a008100e800e180400032a0b40008
:0c053000000006000040da000000fe00a1
:020000040000fa
:10053c00486500006c6c00006f210000003000006a
:10054c00303a0000303000003a300000300000003b
:020000040000fa
:10055c000800fa00004f7800110798002207980055
:10056c00330798003e029000e00f52000500320065
:10057c009e4278000582fb004c22dd006416880048
:10058c00070037009e4278000582fb004422de0003
:10059c00044278000482fb004c22dd0064168800c3
:1005ac001e02900004427800614262000482fb004b
:1005bc00610262004722dd0066168000f5f72f000d
:1005cc00850263000502720064168800100020008a
:1005dc0096020700ccc2a80010002000930207006e
:1005ec00ccc2a90010002000900207002e00900041
:1005fc008e0207000080fa00000006000600fa00d8
:10060c00004f780011079800220798008001eb003a
:10061c002e0190009e0090001e407800ccff070039
:10062c00130020002e0190009e0090001e407800c8
:10063c00c7ff07000080fa00000006000200fa0065
:10064c00004f78001e427800e202200011002000ca
:10065c0004407800e9ff07000080fa000000060063
:10066c000000fa00c8e2a900c8c2a900c9e2a900aa
:10067c00c9c2a900c9a2a900c982a90080a92300e6
:10068c006a02070013002000420021008000eb00ea
:10069c0030c0b300aeff070013002000420620005c
:1006ac008000eb0030c0b300a9ff07004206200019
:1006bc008000eb0020c3b300d0ff070082022000b3
:1006cc008000eb0080c2b300ccff07008202200048
:1006dc008000eb0080c0b300c8ff070082662000da
:1006ec008000eb0010c0b300c4ff070082022000a2
:1006fc008000eb0060c0b300c0ff07008202200046
:10070c008000eb00c0c0b300bcff07000080fa0003
:10071c00000006000400fa00100798000002eb002d
:10072c00040f7800070037001e0278009e0290002c
:10073c00048242001442780004407800bfff070096
:10074c001e0fe8001e0278009e02900004824200f8
:10075c0014427800e04f5200f3ff3a000080fa0098
:10076c00000006000000fa00826620008000eb000a
:10077c0010c0b300a1ff07000080fa0000000600c3
:10078c000400fa0020479800314798000408200024
:10079c00040f78003e4290000482fb001e0f4200c2
:1007ac002e429000e14f520002003a000404200057
:1007bc001e0f42001e0278000442780082022000c4
:1007cc008000eb00044078008cff07000080fa00ea
:1007dc00000006000200fa00a1ff07000002eb0077
:1007ec00040f780030c6b30094ff07000002eb0042
:1007fc00040f780003003700803e20000b02070036
:10080c001e0fe800743e20009e027800848f520078
:10081c00f9ff3400d3ff0700e0292800bdff0700d3
:10082c0021c0b30010c0b300d5ff07000002eb00dd
:10083c00040f780003003700803e2000fb01070006
:10084c001e0fe800743e20009e027800848f520038
:10085c00f9ff3400e0292800aeff07000002eb008e
:10086c00040f780003003700803e2000ef010700e2
:10087c001e0fe800743e20009e027800848f520008
:10088c00f9ff34000080fa00000006000e00fa00a8
:10089c00100798002107980032079800430798002a
:1008ac005407980065079800542a2800040f780014
:1008bc001e029000844278001e027800054a7800df
:1008cc001e02e800ae02900085427800054a7800ce
:1008dc009e02780063824200be029000854278003e
:1008ec00054a78009e02780064824200ce02900095
:1008fc0085427800054a78009e02780066824200a4
:10090c00de02900085427800054a78009e0278004d
:10091c0067824200ee02900085427800054a78001a
:10092c001e0078007bff07001e0278000400780090
:10093c000080fa00000006000c00fa00000f78009e
:10094c001107980022079800330798004407980075
:10095c00550798005e029000044278000443b000f2
:10096c000440780035ff07004e02900004427800e6
:10097c000443b0000440780030ff0700a0c3b3006c
:10098c002eff07003e029000044278000443b000a2
:10099c000440780029ff07002e02900004427800e2
:1009ac000443b0000440780024ff0700a0c3b30048
:1009bc0022ff07001e029000044278000443b0009e
:1009cc00044078001dff07001e02780004427800e6
:1009dc000443b0000440780018ff07000080fa00c0
:1009ec00000006000000fa00c002a900c022a90005
:1009fc00c842a900c862a900c8a2a800c962a80080
:100a0c00c942a800c602a800c622a800ce42a8006f
:100a1c00ce62a800c402a900c422a900cc42a8003e
:100a2c00cc62a8006b60a80069e0a8006a00a8006e
:100a3c006360a80061e0a8006200a8000080fa00d2
:100a4c00000006000000fa00c402a900c422a9009c
:100a5c00cc42a900cc62a9000080fa00000006007c
:100a6c000200fa00000f78001e027800e10f52001d
:100a7c0005003a00c402a900c422a800cc42a80078
:100a8c00cc62a800170037001e027800e20f52005b
:100a9c0005003a00c402a800c422a900cc42a80058
:100aac00cc62a8000f0037001e027800e30f520042
:100abc0005003a00c402a800c422a800cc42a90038
:100acc00cc62a800070037001e027800e40f520029
:100adc0004003a00c402a800c422a800cc42a8001a
:100aec00cc62a9000080fa00000006000200fa00a7
:100afc0000c2eb00044f780010002000d8ff070064
:100b0c0080fc2a00010020004801070055168000d7
:100b1c000480200004826200e00f520004003a00be
:100b2c0014c3b300044f78001e42780073003700e2
:100b3c00551680000440200004826200e00f520031
:100b4c0004003a0024c3b300044f78001e4278001e
:100b5c006a003700551680000402200004826200ef
:100b6c00e00f520004003a0034c3b300044f780085
:100b7c001e4278006100370020002000b8ff0700fb
:100b8c0080fc2a0001002000280107005516800077
:100b9c000480200004826200e00f520004003a003e
:100bac0044c3b300044f78001e4278005300370052
:100bbc00551680000440200004826200e00f5200b1
:100bcc0004003a0054c3b300044f78001e4278006e
:100bdc004a0037005516800004022000048262008f
:100bec00e00f520004003a0064c3b300044f7800d5
:100bfc001e427800410037003000200098ff0700ab
:100c0c0080fc2a0001002000080107005516800016
:100c1c000480200004826200e00f520004003a00bd
:100c2c0074c3b300044f78001e42780033003700c1
:100c3c00551680000440200004826200e00f520030
:100c4c0004003a0084c3b300044f78001e427800bd
:100c5c002a0037005516800004022000048262002e
:100c6c00e00f520004003a0094c3b300044f780024
:100c7c001e427800210037004000200078ff07005a
:100c8c0080fc2a0001002000e800070055168000b7
:100c9c000480200004826200e00f520004003a003d
:100cac00a4c2b300044f78001e4278001300370032
:100cbc00551680000440200004826200e00f5200b0
:100ccc0004003a0004c3b300044f78001e427800bd
:100cdc000a003700551680000402200004826200ce
:100cec00e00f520004003a0034c2b300044f780005
:100cfc001e427800010037001e4278000440780044
:100d0c000080fa00000006000600fa004047980038
:100d1c000002eb00040f78000002eb0014079800af
:100d2c00ce429000a4c2b30084cf520004003a001b
:100d3c001e0290000402e800140798000d00370012
:100d4c00ce429000a4c2b30084cf52000300320004
:100d5c000002eb001407980006003700ce4290000a
:100d6c0034c2b30084cf520002003a000002eb0000
:100d7c00140798001e029000e20f520003003a0084
:100d8c0014002000040f7800050037001e029000ac
:100d9c00e20f5200020032000002eb00040f780058
:100dac001e027800040078000080fa0000000600a3
:100dbc000400fa00204798000002eb00040f7800b2
:100dcc00ae429000a4c2b30084cf520004003200a3
:100ddc00ae42900034c2b30084cf520003003a00fc
:100dec000002eb00040f7800020037001400200012
:100dfc00040f78001e027800040078000080fa00ce
:100e0c00000006000400fa00f6fe070014fe0700be
:100e1c000002eb00040f78009660a8008660a90021
:100e2c0000c2eb00244798000100370000000000ce
:100e3c000440800005002000460020000700200030
:100e4c00860f5200878f5a00f8ff3e0004600100a5
:100e5c003400370034003700020037003700370009
:100e6c003800370021ff0700004278002447980023
:100e7c002e429000e14f4200290032001e02780001
:100e8c00e70f520004003c002e409000ebfd0700e1
:100e9c001e0fe8001e0037001e027800e80f5200fb
:100eac0007003a008040eb0010c0b30034fe07008e
:100ebc002e409000e1fd07001e0fe80014003700e3
:100ecc001e027800e70f5200070034001e02780063
:100edc00ef0f520004003c002e409000d7fd07009d
:100eec001e0fe8000a0037001e027800f00f5200b7
:100efc0007003a008040eb000040eb0020fe0700aa
:100f0c002e409000cdfd07000002eb00040f78008e
:100f1c00ccfe070034002000044088009660a80036
:100f2c000d0037000c003700803821003f0007000f
:100f3c002400200004408800070037009660a800b9
:100f4c000500370080382100380007000002eb0054
:100f5c000440880000000000b5ff3700849fbe00ed
:100f6c003400f80004002000a40188000000fa00fe
:100f7c008660a9005516800004802000048262005f
:100f8c00e00f52000a003200551680000440200089
:100f9c0004826200e00f52000500320055168000fa
:100fac000402200004826200e00f520003003a00a9
:100fbc001400200004408800020037004400200088
:100fcc00044088000080fa003400f9004f02be0093
:100fdc00004006000000fa00f40f2e0014088800f0
:100fec000002eb0004088800240880000440a000e4
:100ffc000450a000240888008460a9009460a80014
:10100c0005e1a8000080fa00000006000000fa00cc
:10101c0084e0a900840880000440a1000450a100d1
:10102c00840888000080fa00000006000200fa0024
:10103c00000f780084e0a900840880000440a1001f
:10104c000450a100840888000002eb0034088800da
:10105c001e0278006e22b900040278006408880031
:10106c0011e1a800040037003508800064088000f6
:10107c00848f520006003e002504800004082000e6
:10108c0004826200e00f5200f7ff320001003700cb
:10109c000000000011e1a9000080fa000000060029
:1010ac000000fa00f40f2e00740888000002eb0018
:1010bc0054088800940880000440a0000450a0004c
:1010cc00940888008500a9009500a80013e1a800e9
:0810dc000080fa00000006008c
:020000040000fa
:1010e40000080000020000000000000000000000f2
:020000040000fa
:020000040001f9
:0457f800ad7b000085
:020000040000fa
:020000040001f9
:0457fc003f3f00002b
:00000001FF
